{
  "contracts/TodoList.sol": {
    "TodoList": {
      "abi": [
        {
          "inputs": [
            {
              "internalType": "string",
              "name": "name",
              "type": "string"
            }
          ],
          "name": "create",
          "outputs": [],
          "stateMutability": "nonpayable",
          "type": "function"
        },
        {
          "inputs": [
            {
              "internalType": "uint256",
              "name": "index",
              "type": "uint256"
            }
          ],
          "name": "deleteTodo",
          "outputs": [],
          "stateMutability": "nonpayable",
          "type": "function"
        },
        {
          "inputs": [
            {
              "internalType": "uint256",
              "name": "",
              "type": "uint256"
            }
          ],
          "name": "list",
          "outputs": [
            {
              "internalType": "string",
              "name": "content",
              "type": "string"
            },
            {
              "internalType": "bool",
              "name": "complated",
              "type": "bool"
            }
          ],
          "stateMutability": "view",
          "type": "function"
        },
        {
          "inputs": [
            {
              "internalType": "uint256",
              "name": "index",
              "type": "uint256"
            },
            {
              "internalType": "bool",
              "name": "complated",
              "type": "bool"
            }
          ],
          "name": "setComplated",
          "outputs": [],
          "stateMutability": "nonpayable",
          "type": "function"
        },
        {
          "inputs": [
            {
              "internalType": "uint256",
              "name": "index",
              "type": "uint256"
            },
            {
              "internalType": "string",
              "name": "name",
              "type": "string"
            }
          ],
          "name": "updateContent",
          "outputs": [],
          "stateMutability": "nonpayable",
          "type": "function"
        }
      ],
      "evm": {
        "bytecode": {
          "linkReferences": {},
          "object": "608060405234801561001057600080fd5b50610dd0806100206000396000f3fe608060405234801561001057600080fd5b50600436106100575760003560e01c806325612dc61461005c578063300d6774146100785780636e3c67381461009457806380c9419e146100b0578063b6a46b3b146100e1575b600080fd5b61007660048036038101906100719190610655565b6100fd565b005b610092600480360381019061008d91906106e9565b61017d565b005b6100ae60048036038101906100a99190610729565b6101be565b005b6100ca60048036038101906100c59190610729565b61031b565b6040516100d89291906107e4565b60405180910390f35b6100fb60048036038101906100f69190610814565b6103e4565b005b816000805490508110610145576040517f08c379a000000000000000000000000000000000000000000000000000000000815260040161013c906108a9565b60405180910390fd5b816000848154811061015a576101596108c9565b5b906000526020600020906002020160000190816101779190610b04565b50505050565b8060008381548110610192576101916108c9565b5b906000526020600020906002020160010160006101000a81548160ff0219169083151502179055505050565b806000805490508110610206576040517f08c379a00000000000000000000000000000000000000000000000000000000081526004016101fd906108a9565b60405180910390fd5b60008290505b600160008054905061021e9190610c05565b8110156102c75760006001826102349190610c39565b81548110610245576102446108c9565b5b906000526020600020906002020160008281548110610267576102666108c9565b5b9060005260206000209060020201600082018160000190816102899190610c83565b506001820160009054906101000a900460ff168160010160006101000a81548160ff021916908315150217905550905050808060010191505061020c565b5060008054806102da576102d9610d6b565b5b6001900381819060005260206000209060020201600080820160006102ff9190610468565b6001820160006101000a81549060ff0219169055505090555050565b6000818154811061032b57600080fd5b906000526020600020906002020160009150905080600001805461034e90610927565b80601f016020809104026020016040519081016040528092919081815260200182805461037a90610927565b80156103c75780601f1061039c576101008083540402835291602001916103c7565b820191906000526020600020905b8154815290600101906020018083116103aa57829003601f168201915b5050505050908060010160009054906101000a900460ff16905082565b60006040518060400160405280838152602001600015158152509050600081908060018154018082558091505060019003906000526020600020906002020160009091909190915060008201518160000190816104419190610b04565b5060208201518160010160006101000a81548160ff02191690831515021790555050505050565b50805461047490610927565b6000825580601f1061048657506104a5565b601f0160209004906000526020600020908101906104a491906104a8565b5b50565b5b808211156104c15760008160009055506001016104a9565b5090565b6000604051905090565b600080fd5b600080fd5b6000819050919050565b6104ec816104d9565b81146104f757600080fd5b50565b600081359050610509816104e3565b92915050565b600080fd5b600080fd5b6000601f19601f8301169050919050565b7f4e487b7100000000000000000000000000000000000000000000000000000000600052604160045260246000fd5b61056282610519565b810181811067ffffffffffffffff821117156105815761058061052a565b5b80604052505050565b60006105946104c5565b90506105a08282610559565b919050565b600067ffffffffffffffff8211156105c0576105bf61052a565b5b6105c982610519565b9050602081019050919050565b82818337600083830152505050565b60006105f86105f3846105a5565b61058a565b90508281526020810184848401111561061457610613610514565b5b61061f8482856105d6565b509392505050565b600082601f83011261063c5761063b61050f565b5b813561064c8482602086016105e5565b91505092915050565b6000806040838503121561066c5761066b6104cf565b5b600061067a858286016104fa565b925050602083013567ffffffffffffffff81111561069b5761069a6104d4565b5b6106a785828601610627565b9150509250929050565b60008115159050919050565b6106c6816106b1565b81146106d157600080fd5b50565b6000813590506106e3816106bd565b92915050565b60008060408385031215610700576106ff6104cf565b5b600061070e858286016104fa565b925050602061071f858286016106d4565b9150509250929050565b60006020828403121561073f5761073e6104cf565b5b600061074d848285016104fa565b91505092915050565b600081519050919050565b600082825260208201905092915050565b60005b83811015610790578082015181840152602081019050610775565b60008484015250505050565b60006107a782610756565b6107b18185610761565b93506107c1818560208601610772565b6107ca81610519565b840191505092915050565b6107de816106b1565b82525050565b600060408201905081810360008301526107fe818561079c565b905061080d60208301846107d5565b9392505050565b60006020828403121561082a576108296104cf565b5b600082013567ffffffffffffffff811115610848576108476104d4565b5b61085484828501610627565b91505092915050565b7f496e646578206f7574206f662072616e67650000000000000000000000000000600082015250565b6000610893601283610761565b915061089e8261085d565b602082019050919050565b600060208201905081810360008301526108c281610886565b9050919050565b7f4e487b7100000000000000000000000000000000000000000000000000000000600052603260045260246000fd5b7f4e487b7100000000000000000000000000000000000000000000000000000000600052602260045260246000fd5b6000600282049050600182168061093f57607f821691505b602082108103610952576109516108f8565b5b50919050565b60008190508160005260206000209050919050565b60006020601f8301049050919050565b600082821b905092915050565b6000600883026109ba7fffffffffffffffffffffffffffffffffffffffffffffffffffffffffffffffff8261097d565b6109c4868361097d565b95508019841693508086168417925050509392505050565b6000819050919050565b6000610a016109fc6109f7846104d9565b6109dc565b6104d9565b9050919050565b6000819050919050565b610a1b836109e6565b610a2f610a2782610a08565b84845461098a565b825550505050565b600090565b610a44610a37565b610a4f818484610a12565b505050565b5b81811015610a7357610a68600082610a3c565b600181019050610a55565b5050565b601f821115610ab857610a8981610958565b610a928461096d565b81016020851015610aa1578190505b610ab5610aad8561096d565b830182610a54565b50505b505050565b600082821c905092915050565b6000610adb60001984600802610abd565b1980831691505092915050565b6000610af48383610aca565b9150826002028217905092915050565b610b0d82610756565b67ffffffffffffffff811115610b2657610b2561052a565b5b610b308254610927565b610b3b828285610a77565b600060209050601f831160018114610b6e5760008415610b5c578287015190505b610b668582610ae8565b865550610bce565b601f198416610b7c86610958565b60005b82811015610ba457848901518255600182019150602085019450602081019050610b7f565b86831015610bc15784890151610bbd601f891682610aca565b8355505b6001600288020188555050505b505050505050565b7f4e487b7100000000000000000000000000000000000000000000000000000000600052601160045260246000fd5b6000610c10826104d9565b9150610c1b836104d9565b9250828203905081811115610c3357610c32610bd6565b5b92915050565b6000610c44826104d9565b9150610c4f836104d9565b9250828201905080821115610c6757610c66610bd6565b5b92915050565b600081549050610c7c81610927565b9050919050565b818103610c91575050610d69565b610c9a82610c6d565b67ffffffffffffffff811115610cb357610cb261052a565b5b610cbd8254610927565b610cc8828285610a77565b6000601f831160018114610cf75760008415610ce5578287015490505b610cef8582610ae8565b865550610d62565b601f198416610d0587610958565b9650610d1086610958565b60005b82811015610d3857848901548255600182019150600185019450602081019050610d13565b86831015610d555784890154610d51601f891682610aca565b8355505b6001600288020188555050505b5050505050505b565b7f4e487b7100000000000000000000000000000000000000000000000000000000600052603160045260246000fdfea2646970667358221220cc6c59bd19f8e695f2badf2e148801e9736bb37ee39c444bcaf845b52837b04d64736f6c63430008180033",
          "opcodes": "PUSH1 0x80 PUSH1 0x40 MSTORE CALLVALUE DUP1 ISZERO PUSH2 0x10 JUMPI PUSH1 0x0 DUP1 REVERT JUMPDEST POP PUSH2 0xDD0 DUP1 PUSH2 0x20 PUSH1 0x0 CODECOPY PUSH1 0x0 RETURN INVALID PUSH1 0x80 PUSH1 0x40 MSTORE CALLVALUE DUP1 ISZERO PUSH2 0x10 JUMPI PUSH1 0x0 DUP1 REVERT JUMPDEST POP PUSH1 0x4 CALLDATASIZE LT PUSH2 0x57 JUMPI PUSH1 0x0 CALLDATALOAD PUSH1 0xE0 SHR DUP1 PUSH4 0x25612DC6 EQ PUSH2 0x5C JUMPI DUP1 PUSH4 0x300D6774 EQ PUSH2 0x78 JUMPI DUP1 PUSH4 0x6E3C6738 EQ PUSH2 0x94 JUMPI DUP1 PUSH4 0x80C9419E EQ PUSH2 0xB0 JUMPI DUP1 PUSH4 0xB6A46B3B EQ PUSH2 0xE1 JUMPI JUMPDEST PUSH1 0x0 DUP1 REVERT JUMPDEST PUSH2 0x76 PUSH1 0x4 DUP1 CALLDATASIZE SUB DUP2 ADD SWAP1 PUSH2 0x71 SWAP2 SWAP1 PUSH2 0x655 JUMP JUMPDEST PUSH2 0xFD JUMP JUMPDEST STOP JUMPDEST PUSH2 0x92 PUSH1 0x4 DUP1 CALLDATASIZE SUB DUP2 ADD SWAP1 PUSH2 0x8D SWAP2 SWAP1 PUSH2 0x6E9 JUMP JUMPDEST PUSH2 0x17D JUMP JUMPDEST STOP JUMPDEST PUSH2 0xAE PUSH1 0x4 DUP1 CALLDATASIZE SUB DUP2 ADD SWAP1 PUSH2 0xA9 SWAP2 SWAP1 PUSH2 0x729 JUMP JUMPDEST PUSH2 0x1BE JUMP JUMPDEST STOP JUMPDEST PUSH2 0xCA PUSH1 0x4 DUP1 CALLDATASIZE SUB DUP2 ADD SWAP1 PUSH2 0xC5 SWAP2 SWAP1 PUSH2 0x729 JUMP JUMPDEST PUSH2 0x31B JUMP JUMPDEST PUSH1 0x40 MLOAD PUSH2 0xD8 SWAP3 SWAP2 SWAP1 PUSH2 0x7E4 JUMP JUMPDEST PUSH1 0x40 MLOAD DUP1 SWAP2 SUB SWAP1 RETURN JUMPDEST PUSH2 0xFB PUSH1 0x4 DUP1 CALLDATASIZE SUB DUP2 ADD SWAP1 PUSH2 0xF6 SWAP2 SWAP1 PUSH2 0x814 JUMP JUMPDEST PUSH2 0x3E4 JUMP JUMPDEST STOP JUMPDEST DUP2 PUSH1 0x0 DUP1 SLOAD SWAP1 POP DUP2 LT PUSH2 0x145 JUMPI PUSH1 0x40 MLOAD PUSH32 0x8C379A000000000000000000000000000000000000000000000000000000000 DUP2 MSTORE PUSH1 0x4 ADD PUSH2 0x13C SWAP1 PUSH2 0x8A9 JUMP JUMPDEST PUSH1 0x40 MLOAD DUP1 SWAP2 SUB SWAP1 REVERT JUMPDEST DUP2 PUSH1 0x0 DUP5 DUP2 SLOAD DUP2 LT PUSH2 0x15A JUMPI PUSH2 0x159 PUSH2 0x8C9 JUMP JUMPDEST JUMPDEST SWAP1 PUSH1 0x0 MSTORE PUSH1 0x20 PUSH1 0x0 KECCAK256 SWAP1 PUSH1 0x2 MUL ADD PUSH1 0x0 ADD SWAP1 DUP2 PUSH2 0x177 SWAP2 SWAP1 PUSH2 0xB04 JUMP JUMPDEST POP POP POP POP JUMP JUMPDEST DUP1 PUSH1 0x0 DUP4 DUP2 SLOAD DUP2 LT PUSH2 0x192 JUMPI PUSH2 0x191 PUSH2 0x8C9 JUMP JUMPDEST JUMPDEST SWAP1 PUSH1 0x0 MSTORE PUSH1 0x20 PUSH1 0x0 KECCAK256 SWAP1 PUSH1 0x2 MUL ADD PUSH1 0x1 ADD PUSH1 0x0 PUSH2 0x100 EXP DUP2 SLOAD DUP2 PUSH1 0xFF MUL NOT AND SWAP1 DUP4 ISZERO ISZERO MUL OR SWAP1 SSTORE POP POP POP JUMP JUMPDEST DUP1 PUSH1 0x0 DUP1 SLOAD SWAP1 POP DUP2 LT PUSH2 0x206 JUMPI PUSH1 0x40 MLOAD PUSH32 0x8C379A000000000000000000000000000000000000000000000000000000000 DUP2 MSTORE PUSH1 0x4 ADD PUSH2 0x1FD SWAP1 PUSH2 0x8A9 JUMP JUMPDEST PUSH1 0x40 MLOAD DUP1 SWAP2 SUB SWAP1 REVERT JUMPDEST PUSH1 0x0 DUP3 SWAP1 POP JUMPDEST PUSH1 0x1 PUSH1 0x0 DUP1 SLOAD SWAP1 POP PUSH2 0x21E SWAP2 SWAP1 PUSH2 0xC05 JUMP JUMPDEST DUP2 LT ISZERO PUSH2 0x2C7 JUMPI PUSH1 0x0 PUSH1 0x1 DUP3 PUSH2 0x234 SWAP2 SWAP1 PUSH2 0xC39 JUMP JUMPDEST DUP2 SLOAD DUP2 LT PUSH2 0x245 JUMPI PUSH2 0x244 PUSH2 0x8C9 JUMP JUMPDEST JUMPDEST SWAP1 PUSH1 0x0 MSTORE PUSH1 0x20 PUSH1 0x0 KECCAK256 SWAP1 PUSH1 0x2 MUL ADD PUSH1 0x0 DUP3 DUP2 SLOAD DUP2 LT PUSH2 0x267 JUMPI PUSH2 0x266 PUSH2 0x8C9 JUMP JUMPDEST JUMPDEST SWAP1 PUSH1 0x0 MSTORE PUSH1 0x20 PUSH1 0x0 KECCAK256 SWAP1 PUSH1 0x2 MUL ADD PUSH1 0x0 DUP3 ADD DUP2 PUSH1 0x0 ADD SWAP1 DUP2 PUSH2 0x289 SWAP2 SWAP1 PUSH2 0xC83 JUMP JUMPDEST POP PUSH1 0x1 DUP3 ADD PUSH1 0x0 SWAP1 SLOAD SWAP1 PUSH2 0x100 EXP SWAP1 DIV PUSH1 0xFF AND DUP2 PUSH1 0x1 ADD PUSH1 0x0 PUSH2 0x100 EXP DUP2 SLOAD DUP2 PUSH1 0xFF MUL NOT AND SWAP1 DUP4 ISZERO ISZERO MUL OR SWAP1 SSTORE POP SWAP1 POP POP DUP1 DUP1 PUSH1 0x1 ADD SWAP2 POP POP PUSH2 0x20C JUMP JUMPDEST POP PUSH1 0x0 DUP1 SLOAD DUP1 PUSH2 0x2DA JUMPI PUSH2 0x2D9 PUSH2 0xD6B JUMP JUMPDEST JUMPDEST PUSH1 0x1 SWAP1 SUB DUP2 DUP2 SWAP1 PUSH1 0x0 MSTORE PUSH1 0x20 PUSH1 0x0 KECCAK256 SWAP1 PUSH1 0x2 MUL ADD PUSH1 0x0 DUP1 DUP3 ADD PUSH1 0x0 PUSH2 0x2FF SWAP2 SWAP1 PUSH2 0x468 JUMP JUMPDEST PUSH1 0x1 DUP3 ADD PUSH1 0x0 PUSH2 0x100 EXP DUP2 SLOAD SWAP1 PUSH1 0xFF MUL NOT AND SWAP1 SSTORE POP POP SWAP1 SSTORE POP POP JUMP JUMPDEST PUSH1 0x0 DUP2 DUP2 SLOAD DUP2 LT PUSH2 0x32B JUMPI PUSH1 0x0 DUP1 REVERT JUMPDEST SWAP1 PUSH1 0x0 MSTORE PUSH1 0x20 PUSH1 0x0 KECCAK256 SWAP1 PUSH1 0x2 MUL ADD PUSH1 0x0 SWAP2 POP SWAP1 POP DUP1 PUSH1 0x0 ADD DUP1 SLOAD PUSH2 0x34E SWAP1 PUSH2 0x927 JUMP JUMPDEST DUP1 PUSH1 0x1F ADD PUSH1 0x20 DUP1 SWAP2 DIV MUL PUSH1 0x20 ADD PUSH1 0x40 MLOAD SWAP1 DUP2 ADD PUSH1 0x40 MSTORE DUP1 SWAP3 SWAP2 SWAP1 DUP2 DUP2 MSTORE PUSH1 0x20 ADD DUP3 DUP1 SLOAD PUSH2 0x37A SWAP1 PUSH2 0x927 JUMP JUMPDEST DUP1 ISZERO PUSH2 0x3C7 JUMPI DUP1 PUSH1 0x1F LT PUSH2 0x39C JUMPI PUSH2 0x100 DUP1 DUP4 SLOAD DIV MUL DUP4 MSTORE SWAP2 PUSH1 0x20 ADD SWAP2 PUSH2 0x3C7 JUMP JUMPDEST DUP3 ADD SWAP2 SWAP1 PUSH1 0x0 MSTORE PUSH1 0x20 PUSH1 0x0 KECCAK256 SWAP1 JUMPDEST DUP2 SLOAD DUP2 MSTORE SWAP1 PUSH1 0x1 ADD SWAP1 PUSH1 0x20 ADD DUP1 DUP4 GT PUSH2 0x3AA JUMPI DUP3 SWAP1 SUB PUSH1 0x1F AND DUP3 ADD SWAP2 JUMPDEST POP POP POP POP POP SWAP1 DUP1 PUSH1 0x1 ADD PUSH1 0x0 SWAP1 SLOAD SWAP1 PUSH2 0x100 EXP SWAP1 DIV PUSH1 0xFF AND SWAP1 POP DUP3 JUMP JUMPDEST PUSH1 0x0 PUSH1 0x40 MLOAD DUP1 PUSH1 0x40 ADD PUSH1 0x40 MSTORE DUP1 DUP4 DUP2 MSTORE PUSH1 0x20 ADD PUSH1 0x0 ISZERO ISZERO DUP2 MSTORE POP SWAP1 POP PUSH1 0x0 DUP2 SWAP1 DUP1 PUSH1 0x1 DUP2 SLOAD ADD DUP1 DUP3 SSTORE DUP1 SWAP2 POP POP PUSH1 0x1 SWAP1 SUB SWAP1 PUSH1 0x0 MSTORE PUSH1 0x20 PUSH1 0x0 KECCAK256 SWAP1 PUSH1 0x2 MUL ADD PUSH1 0x0 SWAP1 SWAP2 SWAP1 SWAP2 SWAP1 SWAP2 POP PUSH1 0x0 DUP3 ADD MLOAD DUP2 PUSH1 0x0 ADD SWAP1 DUP2 PUSH2 0x441 SWAP2 SWAP1 PUSH2 0xB04 JUMP JUMPDEST POP PUSH1 0x20 DUP3 ADD MLOAD DUP2 PUSH1 0x1 ADD PUSH1 0x0 PUSH2 0x100 EXP DUP2 SLOAD DUP2 PUSH1 0xFF MUL NOT AND SWAP1 DUP4 ISZERO ISZERO MUL OR SWAP1 SSTORE POP POP POP POP POP JUMP JUMPDEST POP DUP1 SLOAD PUSH2 0x474 SWAP1 PUSH2 0x927 JUMP JUMPDEST PUSH1 0x0 DUP3 SSTORE DUP1 PUSH1 0x1F LT PUSH2 0x486 JUMPI POP PUSH2 0x4A5 JUMP JUMPDEST PUSH1 0x1F ADD PUSH1 0x20 SWAP1 DIV SWAP1 PUSH1 0x0 MSTORE PUSH1 0x20 PUSH1 0x0 KECCAK256 SWAP1 DUP2 ADD SWAP1 PUSH2 0x4A4 SWAP2 SWAP1 PUSH2 0x4A8 JUMP JUMPDEST JUMPDEST POP JUMP JUMPDEST JUMPDEST DUP1 DUP3 GT ISZERO PUSH2 0x4C1 JUMPI PUSH1 0x0 DUP2 PUSH1 0x0 SWAP1 SSTORE POP PUSH1 0x1 ADD PUSH2 0x4A9 JUMP JUMPDEST POP SWAP1 JUMP JUMPDEST PUSH1 0x0 PUSH1 0x40 MLOAD SWAP1 POP SWAP1 JUMP JUMPDEST PUSH1 0x0 DUP1 REVERT JUMPDEST PUSH1 0x0 DUP1 REVERT JUMPDEST PUSH1 0x0 DUP2 SWAP1 POP SWAP2 SWAP1 POP JUMP JUMPDEST PUSH2 0x4EC DUP2 PUSH2 0x4D9 JUMP JUMPDEST DUP2 EQ PUSH2 0x4F7 JUMPI PUSH1 0x0 DUP1 REVERT JUMPDEST POP JUMP JUMPDEST PUSH1 0x0 DUP2 CALLDATALOAD SWAP1 POP PUSH2 0x509 DUP2 PUSH2 0x4E3 JUMP JUMPDEST SWAP3 SWAP2 POP POP JUMP JUMPDEST PUSH1 0x0 DUP1 REVERT JUMPDEST PUSH1 0x0 DUP1 REVERT JUMPDEST PUSH1 0x0 PUSH1 0x1F NOT PUSH1 0x1F DUP4 ADD AND SWAP1 POP SWAP2 SWAP1 POP JUMP JUMPDEST PUSH32 0x4E487B7100000000000000000000000000000000000000000000000000000000 PUSH1 0x0 MSTORE PUSH1 0x41 PUSH1 0x4 MSTORE PUSH1 0x24 PUSH1 0x0 REVERT JUMPDEST PUSH2 0x562 DUP3 PUSH2 0x519 JUMP JUMPDEST DUP2 ADD DUP2 DUP2 LT PUSH8 0xFFFFFFFFFFFFFFFF DUP3 GT OR ISZERO PUSH2 0x581 JUMPI PUSH2 0x580 PUSH2 0x52A JUMP JUMPDEST JUMPDEST DUP1 PUSH1 0x40 MSTORE POP POP POP JUMP JUMPDEST PUSH1 0x0 PUSH2 0x594 PUSH2 0x4C5 JUMP JUMPDEST SWAP1 POP PUSH2 0x5A0 DUP3 DUP3 PUSH2 0x559 JUMP JUMPDEST SWAP2 SWAP1 POP JUMP JUMPDEST PUSH1 0x0 PUSH8 0xFFFFFFFFFFFFFFFF DUP3 GT ISZERO PUSH2 0x5C0 JUMPI PUSH2 0x5BF PUSH2 0x52A JUMP JUMPDEST JUMPDEST PUSH2 0x5C9 DUP3 PUSH2 0x519 JUMP JUMPDEST SWAP1 POP PUSH1 0x20 DUP2 ADD SWAP1 POP SWAP2 SWAP1 POP JUMP JUMPDEST DUP3 DUP2 DUP4 CALLDATACOPY PUSH1 0x0 DUP4 DUP4 ADD MSTORE POP POP POP JUMP JUMPDEST PUSH1 0x0 PUSH2 0x5F8 PUSH2 0x5F3 DUP5 PUSH2 0x5A5 JUMP JUMPDEST PUSH2 0x58A JUMP JUMPDEST SWAP1 POP DUP3 DUP2 MSTORE PUSH1 0x20 DUP2 ADD DUP5 DUP5 DUP5 ADD GT ISZERO PUSH2 0x614 JUMPI PUSH2 0x613 PUSH2 0x514 JUMP JUMPDEST JUMPDEST PUSH2 0x61F DUP5 DUP3 DUP6 PUSH2 0x5D6 JUMP JUMPDEST POP SWAP4 SWAP3 POP POP POP JUMP JUMPDEST PUSH1 0x0 DUP3 PUSH1 0x1F DUP4 ADD SLT PUSH2 0x63C JUMPI PUSH2 0x63B PUSH2 0x50F JUMP JUMPDEST JUMPDEST DUP2 CALLDATALOAD PUSH2 0x64C DUP5 DUP3 PUSH1 0x20 DUP7 ADD PUSH2 0x5E5 JUMP JUMPDEST SWAP2 POP POP SWAP3 SWAP2 POP POP JUMP JUMPDEST PUSH1 0x0 DUP1 PUSH1 0x40 DUP4 DUP6 SUB SLT ISZERO PUSH2 0x66C JUMPI PUSH2 0x66B PUSH2 0x4CF JUMP JUMPDEST JUMPDEST PUSH1 0x0 PUSH2 0x67A DUP6 DUP3 DUP7 ADD PUSH2 0x4FA JUMP JUMPDEST SWAP3 POP POP PUSH1 0x20 DUP4 ADD CALLDATALOAD PUSH8 0xFFFFFFFFFFFFFFFF DUP2 GT ISZERO PUSH2 0x69B JUMPI PUSH2 0x69A PUSH2 0x4D4 JUMP JUMPDEST JUMPDEST PUSH2 0x6A7 DUP6 DUP3 DUP7 ADD PUSH2 0x627 JUMP JUMPDEST SWAP2 POP POP SWAP3 POP SWAP3 SWAP1 POP JUMP JUMPDEST PUSH1 0x0 DUP2 ISZERO ISZERO SWAP1 POP SWAP2 SWAP1 POP JUMP JUMPDEST PUSH2 0x6C6 DUP2 PUSH2 0x6B1 JUMP JUMPDEST DUP2 EQ PUSH2 0x6D1 JUMPI PUSH1 0x0 DUP1 REVERT JUMPDEST POP JUMP JUMPDEST PUSH1 0x0 DUP2 CALLDATALOAD SWAP1 POP PUSH2 0x6E3 DUP2 PUSH2 0x6BD JUMP JUMPDEST SWAP3 SWAP2 POP POP JUMP JUMPDEST PUSH1 0x0 DUP1 PUSH1 0x40 DUP4 DUP6 SUB SLT ISZERO PUSH2 0x700 JUMPI PUSH2 0x6FF PUSH2 0x4CF JUMP JUMPDEST JUMPDEST PUSH1 0x0 PUSH2 0x70E DUP6 DUP3 DUP7 ADD PUSH2 0x4FA JUMP JUMPDEST SWAP3 POP POP PUSH1 0x20 PUSH2 0x71F DUP6 DUP3 DUP7 ADD PUSH2 0x6D4 JUMP JUMPDEST SWAP2 POP POP SWAP3 POP SWAP3 SWAP1 POP JUMP JUMPDEST PUSH1 0x0 PUSH1 0x20 DUP3 DUP5 SUB SLT ISZERO PUSH2 0x73F JUMPI PUSH2 0x73E PUSH2 0x4CF JUMP JUMPDEST JUMPDEST PUSH1 0x0 PUSH2 0x74D DUP5 DUP3 DUP6 ADD PUSH2 0x4FA JUMP JUMPDEST SWAP2 POP POP SWAP3 SWAP2 POP POP JUMP JUMPDEST PUSH1 0x0 DUP2 MLOAD SWAP1 POP SWAP2 SWAP1 POP JUMP JUMPDEST PUSH1 0x0 DUP3 DUP3 MSTORE PUSH1 0x20 DUP3 ADD SWAP1 POP SWAP3 SWAP2 POP POP JUMP JUMPDEST PUSH1 0x0 JUMPDEST DUP4 DUP2 LT ISZERO PUSH2 0x790 JUMPI DUP1 DUP3 ADD MLOAD DUP2 DUP5 ADD MSTORE PUSH1 0x20 DUP2 ADD SWAP1 POP PUSH2 0x775 JUMP JUMPDEST PUSH1 0x0 DUP5 DUP5 ADD MSTORE POP POP POP POP JUMP JUMPDEST PUSH1 0x0 PUSH2 0x7A7 DUP3 PUSH2 0x756 JUMP JUMPDEST PUSH2 0x7B1 DUP2 DUP6 PUSH2 0x761 JUMP JUMPDEST SWAP4 POP PUSH2 0x7C1 DUP2 DUP6 PUSH1 0x20 DUP7 ADD PUSH2 0x772 JUMP JUMPDEST PUSH2 0x7CA DUP2 PUSH2 0x519 JUMP JUMPDEST DUP5 ADD SWAP2 POP POP SWAP3 SWAP2 POP POP JUMP JUMPDEST PUSH2 0x7DE DUP2 PUSH2 0x6B1 JUMP JUMPDEST DUP3 MSTORE POP POP JUMP JUMPDEST PUSH1 0x0 PUSH1 0x40 DUP3 ADD SWAP1 POP DUP2 DUP2 SUB PUSH1 0x0 DUP4 ADD MSTORE PUSH2 0x7FE DUP2 DUP6 PUSH2 0x79C JUMP JUMPDEST SWAP1 POP PUSH2 0x80D PUSH1 0x20 DUP4 ADD DUP5 PUSH2 0x7D5 JUMP JUMPDEST SWAP4 SWAP3 POP POP POP JUMP JUMPDEST PUSH1 0x0 PUSH1 0x20 DUP3 DUP5 SUB SLT ISZERO PUSH2 0x82A JUMPI PUSH2 0x829 PUSH2 0x4CF JUMP JUMPDEST JUMPDEST PUSH1 0x0 DUP3 ADD CALLDATALOAD PUSH8 0xFFFFFFFFFFFFFFFF DUP2 GT ISZERO PUSH2 0x848 JUMPI PUSH2 0x847 PUSH2 0x4D4 JUMP JUMPDEST JUMPDEST PUSH2 0x854 DUP5 DUP3 DUP6 ADD PUSH2 0x627 JUMP JUMPDEST SWAP2 POP POP SWAP3 SWAP2 POP POP JUMP JUMPDEST PUSH32 0x496E646578206F7574206F662072616E67650000000000000000000000000000 PUSH1 0x0 DUP3 ADD MSTORE POP JUMP JUMPDEST PUSH1 0x0 PUSH2 0x893 PUSH1 0x12 DUP4 PUSH2 0x761 JUMP JUMPDEST SWAP2 POP PUSH2 0x89E DUP3 PUSH2 0x85D JUMP JUMPDEST PUSH1 0x20 DUP3 ADD SWAP1 POP SWAP2 SWAP1 POP JUMP JUMPDEST PUSH1 0x0 PUSH1 0x20 DUP3 ADD SWAP1 POP DUP2 DUP2 SUB PUSH1 0x0 DUP4 ADD MSTORE PUSH2 0x8C2 DUP2 PUSH2 0x886 JUMP JUMPDEST SWAP1 POP SWAP2 SWAP1 POP JUMP JUMPDEST PUSH32 0x4E487B7100000000000000000000000000000000000000000000000000000000 PUSH1 0x0 MSTORE PUSH1 0x32 PUSH1 0x4 MSTORE PUSH1 0x24 PUSH1 0x0 REVERT JUMPDEST PUSH32 0x4E487B7100000000000000000000000000000000000000000000000000000000 PUSH1 0x0 MSTORE PUSH1 0x22 PUSH1 0x4 MSTORE PUSH1 0x24 PUSH1 0x0 REVERT JUMPDEST PUSH1 0x0 PUSH1 0x2 DUP3 DIV SWAP1 POP PUSH1 0x1 DUP3 AND DUP1 PUSH2 0x93F JUMPI PUSH1 0x7F DUP3 AND SWAP2 POP JUMPDEST PUSH1 0x20 DUP3 LT DUP2 SUB PUSH2 0x952 JUMPI PUSH2 0x951 PUSH2 0x8F8 JUMP JUMPDEST JUMPDEST POP SWAP2 SWAP1 POP JUMP JUMPDEST PUSH1 0x0 DUP2 SWAP1 POP DUP2 PUSH1 0x0 MSTORE PUSH1 0x20 PUSH1 0x0 KECCAK256 SWAP1 POP SWAP2 SWAP1 POP JUMP JUMPDEST PUSH1 0x0 PUSH1 0x20 PUSH1 0x1F DUP4 ADD DIV SWAP1 POP SWAP2 SWAP1 POP JUMP JUMPDEST PUSH1 0x0 DUP3 DUP3 SHL SWAP1 POP SWAP3 SWAP2 POP POP JUMP JUMPDEST PUSH1 0x0 PUSH1 0x8 DUP4 MUL PUSH2 0x9BA PUSH32 0xFFFFFFFFFFFFFFFFFFFFFFFFFFFFFFFFFFFFFFFFFFFFFFFFFFFFFFFFFFFFFFFF DUP3 PUSH2 0x97D JUMP JUMPDEST PUSH2 0x9C4 DUP7 DUP4 PUSH2 0x97D JUMP JUMPDEST SWAP6 POP DUP1 NOT DUP5 AND SWAP4 POP DUP1 DUP7 AND DUP5 OR SWAP3 POP POP POP SWAP4 SWAP3 POP POP POP JUMP JUMPDEST PUSH1 0x0 DUP2 SWAP1 POP SWAP2 SWAP1 POP JUMP JUMPDEST PUSH1 0x0 PUSH2 0xA01 PUSH2 0x9FC PUSH2 0x9F7 DUP5 PUSH2 0x4D9 JUMP JUMPDEST PUSH2 0x9DC JUMP JUMPDEST PUSH2 0x4D9 JUMP JUMPDEST SWAP1 POP SWAP2 SWAP1 POP JUMP JUMPDEST PUSH1 0x0 DUP2 SWAP1 POP SWAP2 SWAP1 POP JUMP JUMPDEST PUSH2 0xA1B DUP4 PUSH2 0x9E6 JUMP JUMPDEST PUSH2 0xA2F PUSH2 0xA27 DUP3 PUSH2 0xA08 JUMP JUMPDEST DUP5 DUP5 SLOAD PUSH2 0x98A JUMP JUMPDEST DUP3 SSTORE POP POP POP POP JUMP JUMPDEST PUSH1 0x0 SWAP1 JUMP JUMPDEST PUSH2 0xA44 PUSH2 0xA37 JUMP JUMPDEST PUSH2 0xA4F DUP2 DUP5 DUP5 PUSH2 0xA12 JUMP JUMPDEST POP POP POP JUMP JUMPDEST JUMPDEST DUP2 DUP2 LT ISZERO PUSH2 0xA73 JUMPI PUSH2 0xA68 PUSH1 0x0 DUP3 PUSH2 0xA3C JUMP JUMPDEST PUSH1 0x1 DUP2 ADD SWAP1 POP PUSH2 0xA55 JUMP JUMPDEST POP POP JUMP JUMPDEST PUSH1 0x1F DUP3 GT ISZERO PUSH2 0xAB8 JUMPI PUSH2 0xA89 DUP2 PUSH2 0x958 JUMP JUMPDEST PUSH2 0xA92 DUP5 PUSH2 0x96D JUMP JUMPDEST DUP2 ADD PUSH1 0x20 DUP6 LT ISZERO PUSH2 0xAA1 JUMPI DUP2 SWAP1 POP JUMPDEST PUSH2 0xAB5 PUSH2 0xAAD DUP6 PUSH2 0x96D JUMP JUMPDEST DUP4 ADD DUP3 PUSH2 0xA54 JUMP JUMPDEST POP POP JUMPDEST POP POP POP JUMP JUMPDEST PUSH1 0x0 DUP3 DUP3 SHR SWAP1 POP SWAP3 SWAP2 POP POP JUMP JUMPDEST PUSH1 0x0 PUSH2 0xADB PUSH1 0x0 NOT DUP5 PUSH1 0x8 MUL PUSH2 0xABD JUMP JUMPDEST NOT DUP1 DUP4 AND SWAP2 POP POP SWAP3 SWAP2 POP POP JUMP JUMPDEST PUSH1 0x0 PUSH2 0xAF4 DUP4 DUP4 PUSH2 0xACA JUMP JUMPDEST SWAP2 POP DUP3 PUSH1 0x2 MUL DUP3 OR SWAP1 POP SWAP3 SWAP2 POP POP JUMP JUMPDEST PUSH2 0xB0D DUP3 PUSH2 0x756 JUMP JUMPDEST PUSH8 0xFFFFFFFFFFFFFFFF DUP2 GT ISZERO PUSH2 0xB26 JUMPI PUSH2 0xB25 PUSH2 0x52A JUMP JUMPDEST JUMPDEST PUSH2 0xB30 DUP3 SLOAD PUSH2 0x927 JUMP JUMPDEST PUSH2 0xB3B DUP3 DUP3 DUP6 PUSH2 0xA77 JUMP JUMPDEST PUSH1 0x0 PUSH1 0x20 SWAP1 POP PUSH1 0x1F DUP4 GT PUSH1 0x1 DUP2 EQ PUSH2 0xB6E JUMPI PUSH1 0x0 DUP5 ISZERO PUSH2 0xB5C JUMPI DUP3 DUP8 ADD MLOAD SWAP1 POP JUMPDEST PUSH2 0xB66 DUP6 DUP3 PUSH2 0xAE8 JUMP JUMPDEST DUP7 SSTORE POP PUSH2 0xBCE JUMP JUMPDEST PUSH1 0x1F NOT DUP5 AND PUSH2 0xB7C DUP7 PUSH2 0x958 JUMP JUMPDEST PUSH1 0x0 JUMPDEST DUP3 DUP2 LT ISZERO PUSH2 0xBA4 JUMPI DUP5 DUP10 ADD MLOAD DUP3 SSTORE PUSH1 0x1 DUP3 ADD SWAP2 POP PUSH1 0x20 DUP6 ADD SWAP5 POP PUSH1 0x20 DUP2 ADD SWAP1 POP PUSH2 0xB7F JUMP JUMPDEST DUP7 DUP4 LT ISZERO PUSH2 0xBC1 JUMPI DUP5 DUP10 ADD MLOAD PUSH2 0xBBD PUSH1 0x1F DUP10 AND DUP3 PUSH2 0xACA JUMP JUMPDEST DUP4 SSTORE POP JUMPDEST PUSH1 0x1 PUSH1 0x2 DUP9 MUL ADD DUP9 SSTORE POP POP POP JUMPDEST POP POP POP POP POP POP JUMP JUMPDEST PUSH32 0x4E487B7100000000000000000000000000000000000000000000000000000000 PUSH1 0x0 MSTORE PUSH1 0x11 PUSH1 0x4 MSTORE PUSH1 0x24 PUSH1 0x0 REVERT JUMPDEST PUSH1 0x0 PUSH2 0xC10 DUP3 PUSH2 0x4D9 JUMP JUMPDEST SWAP2 POP PUSH2 0xC1B DUP4 PUSH2 0x4D9 JUMP JUMPDEST SWAP3 POP DUP3 DUP3 SUB SWAP1 POP DUP2 DUP2 GT ISZERO PUSH2 0xC33 JUMPI PUSH2 0xC32 PUSH2 0xBD6 JUMP JUMPDEST JUMPDEST SWAP3 SWAP2 POP POP JUMP JUMPDEST PUSH1 0x0 PUSH2 0xC44 DUP3 PUSH2 0x4D9 JUMP JUMPDEST SWAP2 POP PUSH2 0xC4F DUP4 PUSH2 0x4D9 JUMP JUMPDEST SWAP3 POP DUP3 DUP3 ADD SWAP1 POP DUP1 DUP3 GT ISZERO PUSH2 0xC67 JUMPI PUSH2 0xC66 PUSH2 0xBD6 JUMP JUMPDEST JUMPDEST SWAP3 SWAP2 POP POP JUMP JUMPDEST PUSH1 0x0 DUP2 SLOAD SWAP1 POP PUSH2 0xC7C DUP2 PUSH2 0x927 JUMP JUMPDEST SWAP1 POP SWAP2 SWAP1 POP JUMP JUMPDEST DUP2 DUP2 SUB PUSH2 0xC91 JUMPI POP POP PUSH2 0xD69 JUMP JUMPDEST PUSH2 0xC9A DUP3 PUSH2 0xC6D JUMP JUMPDEST PUSH8 0xFFFFFFFFFFFFFFFF DUP2 GT ISZERO PUSH2 0xCB3 JUMPI PUSH2 0xCB2 PUSH2 0x52A JUMP JUMPDEST JUMPDEST PUSH2 0xCBD DUP3 SLOAD PUSH2 0x927 JUMP JUMPDEST PUSH2 0xCC8 DUP3 DUP3 DUP6 PUSH2 0xA77 JUMP JUMPDEST PUSH1 0x0 PUSH1 0x1F DUP4 GT PUSH1 0x1 DUP2 EQ PUSH2 0xCF7 JUMPI PUSH1 0x0 DUP5 ISZERO PUSH2 0xCE5 JUMPI DUP3 DUP8 ADD SLOAD SWAP1 POP JUMPDEST PUSH2 0xCEF DUP6 DUP3 PUSH2 0xAE8 JUMP JUMPDEST DUP7 SSTORE POP PUSH2 0xD62 JUMP JUMPDEST PUSH1 0x1F NOT DUP5 AND PUSH2 0xD05 DUP8 PUSH2 0x958 JUMP JUMPDEST SWAP7 POP PUSH2 0xD10 DUP7 PUSH2 0x958 JUMP JUMPDEST PUSH1 0x0 JUMPDEST DUP3 DUP2 LT ISZERO PUSH2 0xD38 JUMPI DUP5 DUP10 ADD SLOAD DUP3 SSTORE PUSH1 0x1 DUP3 ADD SWAP2 POP PUSH1 0x1 DUP6 ADD SWAP5 POP PUSH1 0x20 DUP2 ADD SWAP1 POP PUSH2 0xD13 JUMP JUMPDEST DUP7 DUP4 LT ISZERO PUSH2 0xD55 JUMPI DUP5 DUP10 ADD SLOAD PUSH2 0xD51 PUSH1 0x1F DUP10 AND DUP3 PUSH2 0xACA JUMP JUMPDEST DUP4 SSTORE POP JUMPDEST PUSH1 0x1 PUSH1 0x2 DUP9 MUL ADD DUP9 SSTORE POP POP POP JUMPDEST POP POP POP POP POP POP JUMPDEST JUMP JUMPDEST PUSH32 0x4E487B7100000000000000000000000000000000000000000000000000000000 PUSH1 0x0 MSTORE PUSH1 0x31 PUSH1 0x4 MSTORE PUSH1 0x24 PUSH1 0x0 REVERT INVALID LOG2 PUSH5 0x6970667358 0x22 SLT KECCAK256 0xCC PUSH13 0x59BD19F8E695F2BADF2E148801 0xE9 PUSH20 0x6BB37EE39C444BCAF845B52837B04D64736F6C63 NUMBER STOP ADDMOD XOR STOP CALLER "
        },
        "methodIdentifiers": {
          "create(string)": "b6a46b3b",
          "deleteTodo(uint256)": "6e3c6738",
          "list(uint256)": "80c9419e",
          "setComplated(uint256,bool)": "300d6774",
          "updateContent(uint256,string)": "25612dc6"
        }
      }
    }
  }
}