{
  "contracts/Bank.sol": {
    "Bank": {
      "abi": [
        {
          "inputs": [],
          "stateMutability": "payable",
          "type": "constructor"
        },
        {
          "anonymous": false,
          "inputs": [
            {
              "indexed": false,
              "internalType": "address",
              "name": "_ads",
              "type": "address"
            },
            {
              "indexed": false,
              "internalType": "uint256",
              "name": "amount",
              "type": "uint256"
            }
          ],
          "name": "Deposit",
          "type": "event"
        },
        {
          "anonymous": false,
          "inputs": [
            {
              "indexed": false,
              "internalType": "uint256",
              "name": "amount",
              "type": "uint256"
            }
          ],
          "name": "Drawdraw",
          "type": "event"
        },
        {
          "inputs": [],
          "name": "drawMoeny",
          "outputs": [],
          "stateMutability": "nonpayable",
          "type": "function"
        },
        {
          "inputs": [],
          "name": "getBalance",
          "outputs": [
            {
              "internalType": "uint256",
              "name": "",
              "type": "uint256"
            }
          ],
          "stateMutability": "view",
          "type": "function"
        },
        {
          "inputs": [],
          "name": "owner",
          "outputs": [
            {
              "internalType": "address",
              "name": "",
              "type": "address"
            }
          ],
          "stateMutability": "view",
          "type": "function"
        },
        {
          "stateMutability": "payable",
          "type": "receive"
        }
      ],
      "evm": {
        "bytecode": {
          "linkReferences": {},
          "object": "60a06040523373ffffffffffffffffffffffffffffffffffffffff1660808173ffffffffffffffffffffffffffffffffffffffff16815250506080516103976100606000396000818160f40152818161012f01526101c701526103976000f3fe6080604052600436106100385760003560e01c806312065fe01461007d5780638da5cb5b146100a8578063ef4fd2d6146100d357610078565b36610078577fe1fffcc4923d04b559f4d29a8bfc6cda04eb5b0d3c460751c2402c5c5cc9109c333460405161006e929190610285565b60405180910390a1005b600080fd5b34801561008957600080fd5b506100926100ea565b60405161009f91906102ae565b60405180910390f35b3480156100b457600080fd5b506100bd6100f2565b6040516100ca91906102c9565b60405180910390f35b3480156100df57600080fd5b506100e8610116565b005b600047905090565b7f000000000000000000000000000000000000000000000000000000000000000081565b3373ffffffffffffffffffffffffffffffffffffffff167f000000000000000000000000000000000000000000000000000000000000000073ffffffffffffffffffffffffffffffffffffffff16146101a4576040517f08c379a000000000000000000000000000000000000000000000000000000000815260040161019b90610341565b60405180910390fd5b7f38010204dec11bac4c152de81e89d898d5622d79df22721141a6639efec22c0d7f000000000000000000000000000000000000000000000000000000000000000073ffffffffffffffffffffffffffffffffffffffff163160405161020a91906102ae565b60405180910390a13373ffffffffffffffffffffffffffffffffffffffff16ff5b600073ffffffffffffffffffffffffffffffffffffffff82169050919050565b60006102568261022b565b9050919050565b6102668161024b565b82525050565b6000819050919050565b61027f8161026c565b82525050565b600060408201905061029a600083018561025d565b6102a76020830184610276565b9392505050565b60006020820190506102c36000830184610276565b92915050565b60006020820190506102de600083018461025d565b92915050565b600082825260208201905092915050565b7f4e6f74206f6e7765720000000000000000000000000000000000000000000000600082015250565b600061032b6009836102e4565b9150610336826102f5565b602082019050919050565b6000602082019050818103600083015261035a8161031e565b905091905056fea264697066735822122077d8913e1e5ed1c8ee39d41920c3991df7e169b0296727fdf6d4945abf43882d64736f6c63430008180033",
          "opcodes": "PUSH1 0xA0 PUSH1 0x40 MSTORE CALLER PUSH20 0xFFFFFFFFFFFFFFFFFFFFFFFFFFFFFFFFFFFFFFFF AND PUSH1 0x80 DUP2 PUSH20 0xFFFFFFFFFFFFFFFFFFFFFFFFFFFFFFFFFFFFFFFF AND DUP2 MSTORE POP POP PUSH1 0x80 MLOAD PUSH2 0x397 PUSH2 0x60 PUSH1 0x0 CODECOPY PUSH1 0x0 DUP2 DUP2 PUSH1 0xF4 ADD MSTORE DUP2 DUP2 PUSH2 0x12F ADD MSTORE PUSH2 0x1C7 ADD MSTORE PUSH2 0x397 PUSH1 0x0 RETURN INVALID PUSH1 0x80 PUSH1 0x40 MSTORE PUSH1 0x4 CALLDATASIZE LT PUSH2 0x38 JUMPI PUSH1 0x0 CALLDATALOAD PUSH1 0xE0 SHR DUP1 PUSH4 0x12065FE0 EQ PUSH2 0x7D JUMPI DUP1 PUSH4 0x8DA5CB5B EQ PUSH2 0xA8 JUMPI DUP1 PUSH4 0xEF4FD2D6 EQ PUSH2 0xD3 JUMPI PUSH2 0x78 JUMP JUMPDEST CALLDATASIZE PUSH2 0x78 JUMPI PUSH32 0xE1FFFCC4923D04B559F4D29A8BFC6CDA04EB5B0D3C460751C2402C5C5CC9109C CALLER CALLVALUE PUSH1 0x40 MLOAD PUSH2 0x6E SWAP3 SWAP2 SWAP1 PUSH2 0x285 JUMP JUMPDEST PUSH1 0x40 MLOAD DUP1 SWAP2 SUB SWAP1 LOG1 STOP JUMPDEST PUSH1 0x0 DUP1 REVERT JUMPDEST CALLVALUE DUP1 ISZERO PUSH2 0x89 JUMPI PUSH1 0x0 DUP1 REVERT JUMPDEST POP PUSH2 0x92 PUSH2 0xEA JUMP JUMPDEST PUSH1 0x40 MLOAD PUSH2 0x9F SWAP2 SWAP1 PUSH2 0x2AE JUMP JUMPDEST PUSH1 0x40 MLOAD DUP1 SWAP2 SUB SWAP1 RETURN JUMPDEST CALLVALUE DUP1 ISZERO PUSH2 0xB4 JUMPI PUSH1 0x0 DUP1 REVERT JUMPDEST POP PUSH2 0xBD PUSH2 0xF2 JUMP JUMPDEST PUSH1 0x40 MLOAD PUSH2 0xCA SWAP2 SWAP1 PUSH2 0x2C9 JUMP JUMPDEST PUSH1 0x40 MLOAD DUP1 SWAP2 SUB SWAP1 RETURN JUMPDEST CALLVALUE DUP1 ISZERO PUSH2 0xDF JUMPI PUSH1 0x0 DUP1 REVERT JUMPDEST POP PUSH2 0xE8 PUSH2 0x116 JUMP JUMPDEST STOP JUMPDEST PUSH1 0x0 SELFBALANCE SWAP1 POP SWAP1 JUMP JUMPDEST PUSH32 0x0 DUP2 JUMP JUMPDEST CALLER PUSH20 0xFFFFFFFFFFFFFFFFFFFFFFFFFFFFFFFFFFFFFFFF AND PUSH32 0x0 PUSH20 0xFFFFFFFFFFFFFFFFFFFFFFFFFFFFFFFFFFFFFFFF AND EQ PUSH2 0x1A4 JUMPI PUSH1 0x40 MLOAD PUSH32 0x8C379A000000000000000000000000000000000000000000000000000000000 DUP2 MSTORE PUSH1 0x4 ADD PUSH2 0x19B SWAP1 PUSH2 0x341 JUMP JUMPDEST PUSH1 0x40 MLOAD DUP1 SWAP2 SUB SWAP1 REVERT JUMPDEST PUSH32 0x38010204DEC11BAC4C152DE81E89D898D5622D79DF22721141A6639EFEC22C0D PUSH32 0x0 PUSH20 0xFFFFFFFFFFFFFFFFFFFFFFFFFFFFFFFFFFFFFFFF AND BALANCE PUSH1 0x40 MLOAD PUSH2 0x20A SWAP2 SWAP1 PUSH2 0x2AE JUMP JUMPDEST PUSH1 0x40 MLOAD DUP1 SWAP2 SUB SWAP1 LOG1 CALLER PUSH20 0xFFFFFFFFFFFFFFFFFFFFFFFFFFFFFFFFFFFFFFFF AND SELFDESTRUCT JUMPDEST PUSH1 0x0 PUSH20 0xFFFFFFFFFFFFFFFFFFFFFFFFFFFFFFFFFFFFFFFF DUP3 AND SWAP1 POP SWAP2 SWAP1 POP JUMP JUMPDEST PUSH1 0x0 PUSH2 0x256 DUP3 PUSH2 0x22B JUMP JUMPDEST SWAP1 POP SWAP2 SWAP1 POP JUMP JUMPDEST PUSH2 0x266 DUP2 PUSH2 0x24B JUMP JUMPDEST DUP3 MSTORE POP POP JUMP JUMPDEST PUSH1 0x0 DUP2 SWAP1 POP SWAP2 SWAP1 POP JUMP JUMPDEST PUSH2 0x27F DUP2 PUSH2 0x26C JUMP JUMPDEST DUP3 MSTORE POP POP JUMP JUMPDEST PUSH1 0x0 PUSH1 0x40 DUP3 ADD SWAP1 POP PUSH2 0x29A PUSH1 0x0 DUP4 ADD DUP6 PUSH2 0x25D JUMP JUMPDEST PUSH2 0x2A7 PUSH1 0x20 DUP4 ADD DUP5 PUSH2 0x276 JUMP JUMPDEST SWAP4 SWAP3 POP POP POP JUMP JUMPDEST PUSH1 0x0 PUSH1 0x20 DUP3 ADD SWAP1 POP PUSH2 0x2C3 PUSH1 0x0 DUP4 ADD DUP5 PUSH2 0x276 JUMP JUMPDEST SWAP3 SWAP2 POP POP JUMP JUMPDEST PUSH1 0x0 PUSH1 0x20 DUP3 ADD SWAP1 POP PUSH2 0x2DE PUSH1 0x0 DUP4 ADD DUP5 PUSH2 0x25D JUMP JUMPDEST SWAP3 SWAP2 POP POP JUMP JUMPDEST PUSH1 0x0 DUP3 DUP3 MSTORE PUSH1 0x20 DUP3 ADD SWAP1 POP SWAP3 SWAP2 POP POP JUMP JUMPDEST PUSH32 0x4E6F74206F6E7765720000000000000000000000000000000000000000000000 PUSH1 0x0 DUP3 ADD MSTORE POP JUMP JUMPDEST PUSH1 0x0 PUSH2 0x32B PUSH1 0x9 DUP4 PUSH2 0x2E4 JUMP JUMPDEST SWAP2 POP PUSH2 0x336 DUP3 PUSH2 0x2F5 JUMP JUMPDEST PUSH1 0x20 DUP3 ADD SWAP1 POP SWAP2 SWAP1 POP JUMP JUMPDEST PUSH1 0x0 PUSH1 0x20 DUP3 ADD SWAP1 POP DUP2 DUP2 SUB PUSH1 0x0 DUP4 ADD MSTORE PUSH2 0x35A DUP2 PUSH2 0x31E JUMP JUMPDEST SWAP1 POP SWAP2 SWAP1 POP JUMP INVALID LOG2 PUSH5 0x6970667358 0x22 SLT KECCAK256 PUSH24 0xD8913E1E5ED1C8EE39D41920C3991DF7E169B0296727FDF6 0xD4 SWAP5 GAS 0xBF NUMBER DUP9 0x2D PUSH5 0x736F6C6343 STOP ADDMOD XOR STOP CALLER "
        },
        "methodIdentifiers": {
          "drawMoeny()": "ef4fd2d6",
          "getBalance()": "12065fe0",
          "owner()": "8da5cb5b"
        }
      }
    }
  }
}